:1011300053554E004D4F4E00545545005745440001
:101140005448550046524900534154002020202065
:10115000202020202020202020202020002F32307E
:10116000004C554E41523A00FF1130FF1134FF112F
:0D11700038FF113CFF1140FF1144FF1148F2
:100966001213741213291210797D107F071212A91F
:10097600D2AFD2A8D2887530007531007532227593
:1009860033007534007535237536007537007538B4
:10099600247B007A007921120D09E529652360D6AA
:1009A600852329E52175F00A842430FB7D057F0126
:1009B6001212DAE52175F00A84E5F02430FF1213ED
:1009C600197F3A121319E52275F00A842430FF12B2
:1009D6001319E52275F00A84E5F02430FF12131985
:1009E6007F3A121319E52375F00A842430FF121397
:1009F60019E52375F00A84E5F02430FF1213197502
:100A06003000753100753226753300753400753542
:100A1600277536007537007538287B007A007925EA
:100A2600120DE720B003020ABB7BFF7A11794C7DD9
:100A3600017F0212128AE52575F003A42465F5826A
:100A4600E43411F583E493FB740193FA740293F989
:100A56007D027F0212128A7F20121319E52675F095
:100A66000A842430FF121319E52675F00A84E5F08E
:100A76002430FF1213197F2F121319E52775F00A78
:100A8600842430FF121319E52775F00A84E5F02453
:100A960030FF1213197BFF7A11795D12124AE5288D
:100AA60075F00A842430FF121319E52875F00A84BC
:100AB600E5F0020B8E75300075310075322A7533FC
:100AC6000075340075352B75360075370075382C72
:100AD600AB28AD27AF26120B9A7BFF7A1179617D81
:100AE600017F0212128AE52A75F00A842430FF1269
:100AF6001319E52A75F00A84E5F02430FF1213195C
:100B06007F2F121319E52B75F00A842430FF121378
:100B160019E52B75F00A84E5F02430FF1213197FCE
:100B26002F121319E52824D0FFE43407FE7C037D39
:100B3600E8120F30EF2430FF121319E52824D0FFF6
:100B4600E43407FE7C007D64120F307C007D0A12BF
:100B56000F30ED2430FF121319E52824D0FFE434BA
:100B660007FE7C007D0A120F307C007D0A120F30D2
:100B7600ED2430FF121319E52824D0FFE43407FED4
:100B86007C007D0A120F30ED2430FF1213194387C3
:040B96000102097CD3
:030003000213796C
:011379003241
:10130700EF3392A7EFA2E692A6A2E592A5A2E492F6
:02131700A4220E
:0712C200121307D2A2C2A221
:1012C900EFA2E392A7A2E292A6A2E192A51392A4A9
:0112D90022F2
:07135100AE071FEE70FA2247
:10107900C2A0C2A27F147E0012126A7F031212C993
:10108900D2A2C2A27F057E0012126A7F031212C980
:10109900D2A2C2A27F641213517F031212C9D2A233
:1010A900C2A27F017E0012126A7F021212C9D2A265
:1010B900C2A21F7E0012126A7F2812122A7F0C1206
:0C10C900122A7F0112122A7F0602122A4E
:10122A00AE07C2A01212C2D2A2C2A2EF24FE60036B
:10123A000470077F027E0002126A7F251213512270
:10131900AE07D2A01212C2D2A2C2A27F29021351D1
:0212DA008B2D5A
:1012DC00BF01047F8080027FC0ED142FFF12122A01
:0512EC00AF2D021319F3
:06124A008B308A3189326D
:10125000E4FDAB30AA31A9328D82758300120ECF26
:09126000FF60061213190D80E96C
:011269002262
:06128A008B2D8A2E892F36
:10129000BF01047F8080027FC0ED142FFF12122A4D
:0912A000AB2DAA2EA92F02124A5F
:0611B9008B1D8A1E891F38
:1011BF00EF75F008A42440FF12122AE4FDAB1DAA1C
:1011CF001EA91F8D82758300120ECFFF1213190DEA
:0311DF00BD08EA5E
:0111E20022EA
:10126A00E4FDFCC3ED9FEC9E5015E4FBFA0BBB00BA
:0F127A00010AEB647B4A70F50DBD00010C80E4A6
:011289002242
:05137400D290D291228D
:07135800D290C291C2902265
:0C133800D291D290A2919201C290A20129
:011344002286
:1012F100E4FEEF339291D290C290EF25E0FF0EBE53
:0513010008F012133892
:0113060022C4
:07135F00C291D290C290225E
:07136600D291D290C2902247
:10120700E4FFFED291D290EF25E0FF309103430730
:1012170001C2900EBE08EC30010512135F80031265
:0212270013664C
:0112290022A2
:07136D00C291D290D291223F
:0F132900E4FF1211E3AD0753057FE4FF0212A9A1
:1012A9008F2D8D2E1213587FD01212F1AF2D1212DD
:0912B900F1AF2E1212F102136DC7
:0211E3008F2D4E
:1011E5001213587FD01212F1AF2D1212F1121358AB
:1011F5007FD11212F1C2011212078F2E12136DAF99
:011205002EBA
:0112060022C5
:060D09008B2D8A2E892FBC
:100D0F001213587FD01212F1E4FF1212F11213587E
:100D1F007FD11212F1D2011212078F3BD2011212A0
:100D2F00078F3AC2011212078F3912136D533B7F8F
:100D3F00E53BC4540F75F00AA4FFE53B540F2FABEE
:100D4F0033AA34A935120EFC533A7FE53AC4540F37
:100D5F0075F00AA4FFE53A540F2FAB30AA31A93230
:100D6F00120EFCE53930E633AB36AA37A938740CCE
:100D7F00120EFCE53930E504D2008002C20053396F
:100D8F001FE539C4540F75F00AA4FFE539540F2F2E
:100D9F00AB2DAA2EA92F120EFC803AAB36AA37A97B
:100DAF00387418120EFC53393FE539C4540F75F0DF
:100DBF000AA4FFE539540F2FAB2DAA2EA92F120E1F
:100DCF00FCAB2DAA2EA92F120EB6C3940C5004C241
:070DDF00008002D200A20017
:010DE60022EA
:100F85008F148C158D168B17E51775F00A84C454CC
:100F9500F0FFE51775F00A84E5F04FF517AE15AFCC
:100FA500167C007D0A120F30EFC4F8540FC868FB99
:100FB500EEC454F048FAAE15AF167C007D0A120F48
:100FC50030EC4AF515ED4BF516E51475F00A84C4B9
:100FD50054F0FFE51475F00A84E5F04FF514E518B3
:100FE500B40C094314403002034314201213587FF4
:100FF500D01212F1E4FF1212F1AF171212F1AF166F
:0B1005001212F1AF141212F102136D71
:100DE7008B2D8A2E892F1213587FD01212F17F0371
:100DF7001212F11213587FD11212F1D201121207F7
:100E0700AB2DAA2EA92FEF120EFCD201121207AB9F
:100E170030AA31A932EF120EFCD201121207AB33FE
:100E2700AA34A935EF120EFCC201121207AB36AA7B
:100E370037A938EF120EFC12136DAB2DAA2EA92F6E
:100E4700120EB65407120EFCAB30AA31A932120E9D
:100E5700B6543F120EFCAB30AA31A932120EB6FFC0
:100E6700C4540F75F00AA4FEEF540F2E120EFCABFC
:100E770033AA34A935120EB6541F120EFCAB33AA8F
:100E870034A935120EB6FFC4540F75F00AA4FEEF4D
:100E9700540F2E120EFCAB36AA37A938120EB6FF26
:0F0EA700C4540F75F00AA4FEEF540F2E020EFC78
:101010008F198D1A8B1BE51A75F00A84C454F0FFE2
:10102000E51A75F00A84E5F04FF51AE51B75F00A2C
:1010300084C454F0FFE51B75F00A84E5F04FF51BFE
:10104000E51C75F00A84C454F0FFE51C75F00A84B1
:10105000E5F04FF51C1213587FD01212F17F0312E6
:1010600012F1AF191212F1AF1A1212F1AF1B1212D4
:09107000F1AF1C1212F102136D24
:08117D008F088B098A0A890B17
:10118500E4F50D1213587FD01212F1AF081212F1C7
:10119500E4F50DE50DC3950C5017AB09AA0AA90B8B
:1011A500850D82758300120ECFFF1212F1050D8099
:0411B500E202136DD2
:0810D5008F0E8B0F8A108911A8
:1010DD001213587FD01212F1AF0E1212F1121358D3
:1010ED007FD11212F1E4F513E51214FFE513C39F3E
:1010FD005019D201121207AB0FAA10A91185138234
:10110D00758300EF120F0E051380DDC20112120759
:10111D00AB0FAA10A911851382758300EF120F0E64
:03112D0002136D3D
:100006001B79099A1A3A125B187B109D1ABE18E2E0
:100016001304192413461B66198702291A47106808
:100026001A89108A1AAB18CC10EE1B0F11301B510F
:10003600197203941A3212531873129518B51AD7F7
:1000460010F81919133B195B1B7D00211A3D125E2E
:10005600188112A218C21AE4110519261348196844
:100066001B8A082B1A4B104C1A6D128E18AE1AD01A
:1000760010F11B1211331B541975039718351257BB
:100086001877129918B91ADB12FC191C133E19615C
:100096001982022418421264188410A61AC71AE894
:1000A60010E91B0A132B194B1B6D018E1A2D104ECE
:1000B6001A6F109018B11AD310F41B1513361B566D
:1000C60019770B991A381059187A129C18BC18E12E
:1000D60011021B2311441B651B8602271845126754
:1000E600188712A918A918CB12ED190D132F194F3D
:1000F6001B7103921A3010511A7210931AB418D544
:1001060010F71B1811391B5A197B039D1A3B105CFB
:100116001A7D129E18C118E211041B2511461B6791
:1001260019880A2A1849126B1A8B108C1AAD18CE28
:1001360012F01910133219521B7401951A34105506
:100146001A7610971AB81AD910FA1B1B113C1B5DA8
:1001560019810022184110621A8310A41AC518E6E4
:1001660013081B2811291B4A196B038D182B124DD6
:10017600186D108F1AB018D112F31B1313341954BB
:100186001B7609971A3710581A79109A18BB1ADD78
:1001960011011B2111421B631B8400251A441065A3
:1001A6001A8610A718C81ACA10EB1B0C112D1B4E65
:1001B6001B6F0390182E12501870129218B218D492
:1001C60012F6191611381B591B7A039B1839125B44
:1001D6001A7B109C1ABD18E11303192311451B66DF
:1001E6001B8708281A4812691A89108A1AAB18CC74
:1001F60010EE1B0F113019511B7303941832125451
:100206001A7410951AB618D712F91919133B195BF7
:100216001B7D00211A3D10611A8112A31AC318E42E
:1002260013061926134819681B8A002B1A4A104B05
:10023600186C128E1AAE18CF12F11B1111321B5305
:1002460019740B9618351257187710991ABA18DBC5
:1002560012FD1B1D11411B611982022418421264F2
:10026600188410A61AC718C812EA190A132C1B4CB0
:100276001B6D018E1A2D104E1A6F109018B11AD3DD
:1002860010F4191513371B571B7801991A38125990
:100296001879129B18BB18DD1301192213441B642D
:1002A60019850A271A461267188712A918A918CBA2
:1002B60012ED190D112F1B501B7101921A3112529A
:1002C6001872129418B41AD610F71B181139195A45
:1002D6001B7C019D1A3C125D187D12A11AC11AE3FE
:1002E60011041B2511461B671988002A1A49106A32
:1002F6001A6B128C18AC1ACE12EF190F1331195152
:100306001B730994183412561876129818B81ADA0C
:1003160012FB191B133D1B5D198100221841106247
:10032600188312A518C51AE711081B29134A1B6A58
:10033600196B038D182B124D186D108F1AB018D12A
:1003460010F31B1413351B55197603981A361057DC
:100356001A78109918BA1ADC10FD1921134219627D
:100366001B840A251A4410651A8610A718C81ACACB
:1003760010EB190C132E194E1B7003911A2F1050E7
:100386001A71129218B218D412F6191611381B598E
:10039600197A039C1A3A105B1A7C129D18BD1AE151
:1003A6001303192311451B66198702291A4710687A
:1003B6001A8912AA18AA1ACC10ED1B0E112F195061
:1003C6001B7209931A3310541A75129618B61AD856
:1003D60010F91B1A133B195B1B7D0021183D126196
:1003E6001A8210A31AC418E513071B2713481968A5
:1003F6001B8A002B1A4A104B186C128E18AE1AD094
:1004060010F11B12133319531B7503961834125629
:10041600187610981AB918DA10FC1B1D133E1961CC
:100426001B820A2318421264188410A61AC718E8F9
:1004360010EA1B0B112C1B4D1B6E038F1A2D104E31
:100446001A6F109018B11AD310F4191513371957DB
:100456001B79039A1A3810591A7A109B1ABC18DDA0
:1004660013011922134419641B86022718451267C3
:100476001A8710A81AA918CA12EC190C112E1B4FAC
:1004860019700B92183112531A7310941AB51AD6A2
:1004960010F71B181139195A1B7C019D1A3C105D67
:1004A6001A7E12A21AC218E31305192513471B67F1
:1004B6001988002A1A49106A1A6B108C1AAD18CEC0
:1004C60012F01B1011311B521B7301941833125575
:1004D6001875129718B718D912FB1B1B113C1B5D18
:1004E6001B7E0A2118411062188312A518C518E749
:1004F60013091909132B1B4B1B6C018D1A2C124D5A
:10050600186D108F1AB018D110F31B1411351B5625
:100516001B770398183612581878129A18BA1ADCEC
:1005260010FD192111421B631B8400251A44126514
:10053600188512A718C71AC910EA190B132D194DD9
:100546001B6F09901A301251187112931AB318D4EE
:1005560012F6191611381B59197A039C183A125CAF
:10056600187C129E1ABE1AE211031B2411451B6643
:1005760019870229184712691889128B18AB1ACDE8
:1005860012EE190E133019501B7201931A321053C2
:100596001A7410951AB618D712F91919133B1B5B62
:1005A600197C0B9E183D12611A8210A318C41AE614
:1005B60011071B2813491B69198A022C1A4A106B4A
:1005C600186C128E18AE18D012F2191213341B546E
:1005D6001B7501961A351256187610981AB918DA3C
:1005E60010FC1B1D11411B611B8302241A42106360
:1005F6001A8410A51AC618E710E91B0A112B1B4C02
:10060600196D0B8F1A2E124F186F129118B11AD33B
:1006160010F41915133719571B79019A1A39125AFA
:10062600187A129C1ABC18DD130219221344196495
:100636001B8600271A4610671A8812A918A91ACB12
:1006460010EC1B0D112E1B4F19700392183012520D
:100656001872129418B41AD612F7191713391959B1
:100666001B7B099C1A3C105D1A7E10A21AC31AE461
:1006760011051B26134719671B89002A1A49106A98
:100686001A8B108C18AD1ACF10F01B1113321B5297
:1006960019730395183312551875129718B718D988
:1006A60012FB191B133D195D1B8102221A3E1262B1
:1006B600188212A418C418E613081908132A194A2E
:1006C6001B6C0B8D1A2C104D1A6E108F1AB018D188
:1006D60010F31B14113519561B7803991A37105845
:1006E6001A79129A18BA1ADC10FD192111421963E7
:1006F6001B850226184412661A8610A71AC818C93E
:1007060012EB190B132D194D1B6F01901A2F105058
:100716001A7110921AB31AD410F51B1611371B58FA
:1007260019790B9B183A125C187C129E18C118E2B4
:1007360013041B2411451B661987022918471269E1
:100746001889108B1AAC18CD12EF1B0F11301B51E4
:100756001B7201931A3210531A74109518B61AD8D0
:1007660010F91B1A113B1B5C1B7D039E183C125E85
:10077600188110A218C31AE511061B2711481B6918
:100786001B8A0A2B184A126C186C128E18AE18D0D7
:1007960010F21B1311341B551B760397183512578D
:1007A6001A7710981AB918DA10FC1B1D11411B6232
:1007B6001B8300241A431264188412A618C61AE86A
:1007C60010E91B0A112B194C1B6E038F182D124FA3
:1007D6001A6F10901AB118D212F41914133619564A
:1007E6001B7809991A39105A1A7B109C1ABD1ADE01
:1007F60013021922134419641B860027184612682F
:10080600188812AA1AAA18CB12ED190D132F1B4F0E
:1008160019700392183010521A7310941AB518D61C
:1008260012F81B1811391B5A1B7B019C1A3B105CD2
:100836001A7D10A11AC218E31305192513471B6761
:100846001B8808291A49106A1A8B108C18AD18CF04
:1008560012F1191113331B531B7401951A341255D7
:100866001875129718B718D910FB1B1C113D1B5E83
:100876001B8102231A411262188212A418C418E6B8
:1008860013081908112A1B4B196C038E1A2C124DCA
:10089600186D128F18AF1AD110F21B131134195597
:1008A6001B7709981A3812591879129B1ABB18DC4B
:1008B60012FE1921114219631B8500261A4510667E
:1008C6001A8712A818C81ACA12EB190B132D194D3C
:1008D6001B6F0190182F12511871129318B31AD565
:1008E60012F6191613381B581979039B1839105B21
:1008F6001A7C109D1ABE1AE211031B2413451B65B0
:1009060019860A28184712691889108B1AAC18CD4F
:1009160010EF1B1013311B51197203941A32105326
:100926001A74109518B618D812FA191A133C1B5CCB
:10093600197D02211A3D125E188110A218C318E50E
:1009460013071927134919691B8B022C1A4A104BD6
:100956001A6C108D1AAE18CF10F11B1211331B54DE
:060B9A008F2D8D2E8B2F24
:100BA000E52F75F00CA47C002DFFEC35F0FEEF2551
:100BB000E0FDEE33FC74042DF58274003CF583E413
:100BC00093F53D740193F53EAE3DAF3EEF541FF5F6
:100BD00039AE3DAF3EEF7805CEC313CE13D8F954EE
:100BE0000FF53AAE3DAF3EEEC3135401241DF53B65
:100BF000AE3DAF3EEE13135401F53C74062DF58265
:100C000074003CF583E493F53D740193F53EAE3DED
:100C1000AF3EEF541FFDAE3DAF3EEF7805CEC313A0
:100C2000CE13D8F9540FFFE539653B7061ED6402CE
:100C3000705CE52DB4010DAB30AA31A932E5391253
:100C40000EFC802AE52DB41F15AB30AA31A93274F1
:100C500001120EFCAB33AA34A935EF020CDFE52DEF
:100C600014AB30AA31A932120EFCE53C600AAB335A
:100C7000AA34A935E53A8067E53AB40C047F0180CF
:100C800004E53A04FFAB33AA34A935EF8051E52DD2
:100C9000253914AB30AA31A932120EFCAB30AA317F
:100CA000A932120EB6FFD3953B500AAB33AA34A932
:100CB00035E53A802AAB30AA31A932C3EF953B1211
:100CC0000EFCE53A04C3953CAB33AA34A935120EA9
:100CD000FCAB33AA34A935120EB6B40D057401125B
:100CE0000EFCAB33AA34A935120EB6FFE52EC39F16
:100CF000400AAB36AA37A938E52F8009E52F14AB97
:080D000036AA37A938120EFCD7
:010D080022C8
:03000000021345A3
:0C134500787FE4F6D8FD75813E02096651
:100EB600BB010689828A83E0225002E722BBFE023A
:090EC600E32289828A83E493226D
:100ECF00BB010CE58229F582E5833AF583E02250D8
:100EDF0006E92582F8E622BBFE06E92582F8E22222
:0D0EEF00E58229F582E5833AF583E493223C
:100EFC00BB010689828A83F0225002F722BBFE01D5
:020F0C00F322CE
:100F0E00F8BB010DE58229F582E5833AF583E8F019
:100F1E00225006E92582C8F622BBFE05E92582C8C5
:020F2E00F222AD
:100F3000BC000BBE0029EF8DF084FFADF022E4CCA5
:100F4000F875F008EF2FFFEE33FEEC33FCEE9DEC6E
:100F5000984005FCEE9DFE0FD5F0E9E4CEFD22EDB4
:100F6000F8F5F0EE8420D21CFEADF075F008EF2FFE
:100F7000FFED33FD4007985006D5F0F222C398FDEF
:050F80000FD5F0EA228C
:00000001FF
